{
  "contractName": "Helloworld",
  "abi": [
    {
      "inputs": [
        {
          "internalType": "string",
          "name": "_message",
          "type": "string"
        }
      ],
      "stateMutability": "nonpayable",
      "type": "constructor"
    },
    {
      "inputs": [],
      "name": "message",
      "outputs": [
        {
          "internalType": "string",
          "name": "",
          "type": "string"
        }
      ],
      "stateMutability": "view",
      "type": "function",
      "constant": true
    },
    {
      "inputs": [],
      "name": "owner",
      "outputs": [
        {
          "internalType": "address",
          "name": "",
          "type": "address"
        }
      ],
      "stateMutability": "view",
      "type": "function",
      "constant": true
    },
    {
      "inputs": [],
      "name": "hello",
      "outputs": [
        {
          "internalType": "string",
          "name": "",
          "type": "string"
        }
      ],
      "stateMutability": "view",
      "type": "function",
      "constant": true
    },
    {
      "inputs": [
        {
          "internalType": "string",
          "name": "_message",
          "type": "string"
        }
      ],
      "name": "setMessage",
      "outputs": [],
      "stateMutability": "payable",
      "type": "function",
      "payable": true
    }
  ],
  "bytecode": "0x608060405234801561001057600080fd5b5060405161073638038061073683398101604081905261002f9161006a565b600061003b82826101bc565b5050600180546001600160a01b0319163317905561027b565b634e487b7160e01b600052604160045260246000fd5b6000602080838503121561007d57600080fd5b82516001600160401b038082111561009457600080fd5b818501915085601f8301126100a857600080fd5b8151818111156100ba576100ba610054565b604051601f8201601f19908116603f011681019083821181831017156100e2576100e2610054565b8160405282815288868487010111156100fa57600080fd5b600093505b8284101561011c57848401860151818501870152928501926100ff565b600086848301015280965050505050505092915050565b600181811c9082168061014757607f821691505b60208210810361016757634e487b7160e01b600052602260045260246000fd5b50919050565b601f8211156101b757600081815260208120601f850160051c810160208610156101945750805b601f850160051c820191505b818110156101b3578281556001016101a0565b5050505b505050565b81516001600160401b038111156101d5576101d5610054565b6101e9816101e38454610133565b8461016d565b602080601f83116001811461021e57600084156102065750858301515b600019600386901b1c1916600185901b1785556101b3565b600085815260208120601f198616915b8281101561024d5788860151825594840194600190910190840161022e565b508582101561026b5787850151600019600388901b60f8161c191681555b5050505050600190811b01905550565b6104ac8061028a6000396000f3fe60806040526004361061003f5760003560e01c806319ff1d2114610044578063368b87721461006f5780638da5cb5b14610084578063e21f37ce146100bc575b600080fd5b34801561005057600080fd5b506100596100d1565b6040516100669190610218565b60405180910390f35b61008261007d36600461027c565b610163565b005b34801561009057600080fd5b506001546100a4906001600160a01b031681565b6040516001600160a01b039091168152602001610066565b3480156100c857600080fd5b5061005961018a565b6060600080546100e09061032d565b80601f016020809104026020016040519081016040528092919081815260200182805461010c9061032d565b80156101595780601f1061012e57610100808354040283529160200191610159565b820191906000526020600020905b81548152906001019060200180831161013c57829003601f168201915b5050505050905090565b6001546001600160a01b0316331461017a57600080fd5b600061018682826103b6565b5050565b600080546101979061032d565b80601f01602080910402602001604051908101604052809291908181526020018280546101c39061032d565b80156102105780601f106101e557610100808354040283529160200191610210565b820191906000526020600020905b8154815290600101906020018083116101f357829003601f168201915b505050505081565b600060208083528351808285015260005b8181101561024557858101830151858201604001528201610229565b506000604082860101526040601f19601f8301168501019250505092915050565b634e487b7160e01b600052604160045260246000fd5b60006020828403121561028e57600080fd5b813567ffffffffffffffff808211156102a657600080fd5b818401915084601f8301126102ba57600080fd5b8135818111156102cc576102cc610266565b604051601f8201601f19908116603f011681019083821181831017156102f4576102f4610266565b8160405282815287602084870101111561030d57600080fd5b826020860160208301376000928101602001929092525095945050505050565b600181811c9082168061034157607f821691505b60208210810361036157634e487b7160e01b600052602260045260246000fd5b50919050565b601f8211156103b157600081815260208120601f850160051c8101602086101561038e5750805b601f850160051c820191505b818110156103ad5782815560010161039a565b5050505b505050565b815167ffffffffffffffff8111156103d0576103d0610266565b6103e4816103de845461032d565b84610367565b602080601f83116001811461041957600084156104015750858301515b600019600386901b1c1916600185901b1785556103ad565b600085815260208120601f198616915b8281101561044857888601518255948401946001909101908401610429565b50858210156104665787850151600019600388901b60f8161c191681555b5050505050600190811b0190555056fea2646970667358221220f5b767eeaea9c210c189294aa01912b79ed0d04e0f8049ccf83caee78ebfc28964736f6c63430008110033",
  "immutableReferences": {},
  "source": "pragma solidity 0.8.17;\r\n\r\ncontract Helloworld{\r\n\r\n    string public message;\r\n    address public owner;\r\n\r\n    constructor(string memory _message){\r\n        message = _message;\r\n        owner = msg.sender;\r\n    }\r\n\r\n    function hello() public view returns(string memory){\r\n        return message;\r\n    }\r\n\r\n    function setMessage(string memory _message) public payable{\r\n        //require(msg.value > 1 ether);\r\n        require (msg.sender == owner);\r\n        message = _message;\r\n    }\r\n}",
  "sourcePath": "C:\\Users\\Akshitha\\block-chain-contract-assignment\\contracts\\Helloworld.sol",
  "compiler": {
    "name": "solc",
    "version": "0.8.17+commit.8df45f5f.Emscripten.clang"
  },
  "schemaVersion": "3.4.10",
  "updatedAt": "2022-10-23T23:10:39.873Z",
  "networkType": "ethereum",
  "devdoc": {
    "kind": "dev",
    "methods": {},
    "version": 1
  },
  "userdoc": {
    "kind": "user",
    "methods": {},
    "version": 1
  }
}